{
  "contractName": "DAO",
  "abi": [
    {
      "inputs": [
        {
          "internalType": "address",
          "name": "_token",
          "type": "address"
        }
      ],
      "stateMutability": "nonpayable",
      "type": "constructor"
    },
    {
      "inputs": [
        {
          "internalType": "bytes32",
          "name": "",
          "type": "bytes32"
        }
      ],
      "name": "proposals",
      "outputs": [
        {
          "internalType": "address",
          "name": "author",
          "type": "address"
        },
        {
          "internalType": "bytes32",
          "name": "hash",
          "type": "bytes32"
        },
        {
          "internalType": "uint256",
          "name": "createdAt",
          "type": "uint256"
        },
        {
          "internalType": "uint256",
          "name": "votesYes",
          "type": "uint256"
        },
        {
          "internalType": "uint256",
          "name": "votesNo",
          "type": "uint256"
        },
        {
          "internalType": "enum DAO.Status",
          "name": "status",
          "type": "uint8"
        }
      ],
      "stateMutability": "view",
      "type": "function"
    },
    {
      "inputs": [
        {
          "internalType": "address",
          "name": "",
          "type": "address"
        }
      ],
      "name": "shares",
      "outputs": [
        {
          "internalType": "uint256",
          "name": "",
          "type": "uint256"
        }
      ],
      "stateMutability": "view",
      "type": "function"
    },
    {
      "inputs": [],
      "name": "token",
      "outputs": [
        {
          "internalType": "contract IERC20",
          "name": "",
          "type": "address"
        }
      ],
      "stateMutability": "view",
      "type": "function"
    },
    {
      "inputs": [],
      "name": "totalShares",
      "outputs": [
        {
          "internalType": "uint256",
          "name": "",
          "type": "uint256"
        }
      ],
      "stateMutability": "view",
      "type": "function"
    },
    {
      "inputs": [
        {
          "internalType": "address",
          "name": "",
          "type": "address"
        },
        {
          "internalType": "bytes32",
          "name": "",
          "type": "bytes32"
        }
      ],
      "name": "votes",
      "outputs": [
        {
          "internalType": "bool",
          "name": "",
          "type": "bool"
        }
      ],
      "stateMutability": "view",
      "type": "function"
    },
    {
      "inputs": [
        {
          "internalType": "uint256",
          "name": "amount",
          "type": "uint256"
        }
      ],
      "name": "deposit",
      "outputs": [],
      "stateMutability": "nonpayable",
      "type": "function"
    },
    {
      "inputs": [
        {
          "internalType": "uint256",
          "name": "amount",
          "type": "uint256"
        }
      ],
      "name": "withdraw",
      "outputs": [],
      "stateMutability": "nonpayable",
      "type": "function"
    },
    {
      "inputs": [
        {
          "internalType": "bytes32",
          "name": "proposalHash",
          "type": "bytes32"
        }
      ],
      "name": "createProposal",
      "outputs": [],
      "stateMutability": "nonpayable",
      "type": "function"
    },
    {
      "inputs": [
        {
          "internalType": "bytes32",
          "name": "proposalHash",
          "type": "bytes32"
        },
        {
          "internalType": "enum DAO.Side",
          "name": "side",
          "type": "uint8"
        }
      ],
      "name": "vote",
      "outputs": [],
      "stateMutability": "nonpayable",
      "type": "function"
    }
  ],
  "bytecode": "0x60806040523480156200001157600080fd5b50604051620014d6380380620014d6833981810160405281019062000037919062000096565b80600460006101000a81548173ffffffffffffffffffffffffffffffffffffffff021916908373ffffffffffffffffffffffffffffffffffffffff1602179055505062000110565b6000815190506200009081620000f6565b92915050565b600060208284031215620000a957600080fd5b6000620000b9848285016200007f565b91505092915050565b6000620000cf82620000d6565b9050919050565b600073ffffffffffffffffffffffffffffffffffffffff82169050919050565b6200010181620000c2565b81146200010d57600080fd5b50565b6113b680620001206000396000f3fe608060405234801561001057600080fd5b50600436106100935760003560e01c80633a98ef39116100665780633a98ef3914610135578063b6b55f2514610153578063c9a28cb91461016f578063ce7c2ac21461018b578063fc0c546a146101bb57610093565b80631db5ade8146100985780632542bf06146100c85780632e1a7d4d146100e457806332ed5b1214610100575b600080fd5b6100b260048036038101906100ad9190610c4d565b6101d9565b6040516100bf9190610fc1565b60405180910390f35b6100e260048036038101906100dd9190610cb2565b610208565b005b6100fe60048036038101906100f99190610d17565b610448565b005b61011a60048036038101906101159190610cb2565b6105ec565b60405161012c96959493929190610f37565b60405180910390f35b61013d610655565b60405161014a9190611097565b60405180910390f35b61016d60048036038101906101689190610d17565b61065b565b005b61018960048036038101906101849190610cdb565b61077f565b005b6101a560048036038101906101a09190610c24565b610b7d565b6040516101b29190611097565b60405180910390f35b6101c3610b95565b6040516101d09190610fdc565b60405180910390f35b60016020528160005260406000206020528060005260406000206000915091509054906101000a900460ff1681565b683635c9adc5dea00000600260003373ffffffffffffffffffffffffffffffffffffffff1673ffffffffffffffffffffffffffffffffffffffff168152602001908152602001600020541015610293576040517f08c379a000000000000000000000000000000000000000000000000000000000815260040161028a90610ff7565b60405180910390fd5b6000801b60008083815260200190815260200160002060010154146102ed576040517f08c379a00000000000000000000000000000000000000000000000000000000081526004016102e490611077565b60405180910390fd5b6040518060c001604052803373ffffffffffffffffffffffffffffffffffffffff168152602001828152602001428152602001600081526020016000815260200160006002811115610368577f4e487b7100000000000000000000000000000000000000000000000000000000600052602160045260246000fd5b81525060008083815260200190815260200160002060008201518160000160006101000a81548173ffffffffffffffffffffffffffffffffffffffff021916908373ffffffffffffffffffffffffffffffffffffffff1602179055506020820151816001015560408201518160020155606082015181600301556080820151816004015560a08201518160050160006101000a81548160ff0219169083600281111561043d577f4e487b7100000000000000000000000000000000000000000000000000000000600052602160045260246000fd5b021790555090505050565b80600260003373ffffffffffffffffffffffffffffffffffffffff1673ffffffffffffffffffffffffffffffffffffffff1681526020019081526020016000205410156104ca576040517f08c379a00000000000000000000000000000000000000000000000000000000081526004016104c190611017565b60405180910390fd5b80600260003373ffffffffffffffffffffffffffffffffffffffff1673ffffffffffffffffffffffffffffffffffffffff168152602001908152602001600020600082825461051991906111a4565b92505081905550806003600082825461053291906111a4565b92505081905550600460009054906101000a900473ffffffffffffffffffffffffffffffffffffffff1673ffffffffffffffffffffffffffffffffffffffff1663a9059cbb33836040518363ffffffff1660e01b8152600401610596929190610f98565b602060405180830381600087803b1580156105b057600080fd5b505af11580156105c4573d6000803e3d6000fd5b505050506040513d601f19601f820116820180604052508101906105e89190610c89565b5050565b60006020528060005260406000206000915090508060000160009054906101000a900473ffffffffffffffffffffffffffffffffffffffff16908060010154908060020154908060030154908060040154908060050160009054906101000a900460ff16905086565b60035481565b80600260003373ffffffffffffffffffffffffffffffffffffffff1673ffffffffffffffffffffffffffffffffffffffff16815260200190815260200160002060008282546106aa91906110c3565b9250508190555080600360008282546106c391906110c3565b92505081905550600460009054906101000a900473ffffffffffffffffffffffffffffffffffffffff1673ffffffffffffffffffffffffffffffffffffffff166323b872dd3330846040518463ffffffff1660e01b815260040161072993929190610f00565b602060405180830381600087803b15801561074357600080fd5b505af1158015610757573d6000803e3d6000fd5b505050506040513d601f19601f8201168201806040525081019061077b9190610c89565b5050565b6000806000848152602001908152602001600020905060001515600160003373ffffffffffffffffffffffffffffffffffffffff1673ffffffffffffffffffffffffffffffffffffffff168152602001908152602001600020600085815260200190815260200160002060009054906101000a900460ff16151514610839576040517f08c379a000000000000000000000000000000000000000000000000000000000815260040161083090611037565b60405180910390fd5b6000801b600080858152602001908152602001600020600101541415610894576040517f08c379a000000000000000000000000000000000000000000000000000000000815260040161088b90611077565b60405180910390fd5b62093a8081600201546108a791906110c3565b4211156108e9576040517f08c379a00000000000000000000000000000000000000000000000000000000081526004016108e090611057565b60405180910390fd5b60018060003373ffffffffffffffffffffffffffffffffffffffff1673ffffffffffffffffffffffffffffffffffffffff168152602001908152602001600020600085815260200190815260200160002060006101000a81548160ff0219169083151502179055506000600181111561098b577f4e487b7100000000000000000000000000000000000000000000000000000000600052602160045260246000fd5b8260018111156109c4577f4e487b7100000000000000000000000000000000000000000000000000000000600052602160045260246000fd5b1415610aa357600260003373ffffffffffffffffffffffffffffffffffffffff1673ffffffffffffffffffffffffffffffffffffffff16815260200190815260200160002054816003016000828254610a1d91906110c3565b92505081905550603260035460648360030154610a3a919061114a565b610a449190611119565b1115610a9e5760018160050160006101000a81548160ff02191690836002811115610a98577f4e487b7100000000000000000000000000000000000000000000000000000000600052602160045260246000fd5b02179055505b610b78565b600260003373ffffffffffffffffffffffffffffffffffffffff1673ffffffffffffffffffffffffffffffffffffffff16815260200190815260200160002054816004016000828254610af691906110c3565b92505081905550603260035460648360040154610b13919061114a565b610b1d9190611119565b1115610b775760028160050160006101000a81548160ff02191690836002811115610b71577f4e487b7100000000000000000000000000000000000000000000000000000000600052602160045260246000fd5b02179055505b5b505050565b60026020528060005260406000206000915090505481565b600460009054906101000a900473ffffffffffffffffffffffffffffffffffffffff1681565b600081359050610bca81611314565b92915050565b600081519050610bdf8161132b565b92915050565b600081359050610bf481611342565b92915050565b600081359050610c0981611359565b92915050565b600081359050610c1e81611369565b92915050565b600060208284031215610c3657600080fd5b6000610c4484828501610bbb565b91505092915050565b60008060408385031215610c6057600080fd5b6000610c6e85828601610bbb565b9250506020610c7f85828601610be5565b9150509250929050565b600060208284031215610c9b57600080fd5b6000610ca984828501610bd0565b91505092915050565b600060208284031215610cc457600080fd5b6000610cd284828501610be5565b91505092915050565b60008060408385031215610cee57600080fd5b6000610cfc85828601610be5565b9250506020610d0d85828601610bfa565b9150509250929050565b600060208284031215610d2957600080fd5b6000610d3784828501610c0f565b91505092915050565b610d49816111d8565b82525050565b610d58816111ea565b82525050565b610d67816111f6565b82525050565b610d768161123d565b82525050565b610d8581611261565b82525050565b6000610d986024836110b2565b91507f6e6f7420656e6f7567682073686172657320746f206372656174652070726f7060008301527f6f73616c000000000000000000000000000000000000000000000000000000006020830152604082019050919050565b6000610dfe6011836110b2565b91507f6e6f7420656e6f756768207368617265730000000000000000000000000000006000830152602082019050919050565b6000610e3e600d836110b2565b91507f616c726561647920766f746564000000000000000000000000000000000000006000830152602082019050919050565b6000610e7e6015836110b2565b91507f766f74696e6720706572696f64206973206f76657200000000000000000000006000830152602082019050919050565b6000610ebe6016836110b2565b91507f70726f706f73616c20616c7265616479206578697374000000000000000000006000830152602082019050919050565b610efa81611233565b82525050565b6000606082019050610f156000830186610d40565b610f226020830185610d40565b610f2f6040830184610ef1565b949350505050565b600060c082019050610f4c6000830189610d40565b610f596020830188610d5e565b610f666040830187610ef1565b610f736060830186610ef1565b610f806080830185610ef1565b610f8d60a0830184610d7c565b979650505050505050565b6000604082019050610fad6000830185610d40565b610fba6020830184610ef1565b9392505050565b6000602082019050610fd66000830184610d4f565b92915050565b6000602082019050610ff16000830184610d6d565b92915050565b6000602082019050818103600083015261101081610d8b565b9050919050565b6000602082019050818103600083015261103081610df1565b9050919050565b6000602082019050818103600083015261105081610e31565b9050919050565b6000602082019050818103600083015261107081610e71565b9050919050565b6000602082019050818103600083015261109081610eb1565b9050919050565b60006020820190506110ac6000830184610ef1565b92915050565b600082825260208201905092915050565b60006110ce82611233565b91506110d983611233565b9250827fffffffffffffffffffffffffffffffffffffffffffffffffffffffffffffffff0382111561110e5761110d611273565b5b828201905092915050565b600061112482611233565b915061112f83611233565b92508261113f5761113e6112a2565b5b828204905092915050565b600061115582611233565b915061116083611233565b9250817fffffffffffffffffffffffffffffffffffffffffffffffffffffffffffffffff048311821515161561119957611198611273565b5b828202905092915050565b60006111af82611233565b91506111ba83611233565b9250828210156111cd576111cc611273565b5b828203905092915050565b60006111e382611213565b9050919050565b60008115159050919050565b6000819050919050565b600081905061120e82611300565b919050565b600073ffffffffffffffffffffffffffffffffffffffff82169050919050565b6000819050919050565b60006112488261124f565b9050919050565b600061125a82611213565b9050919050565b600061126c82611200565b9050919050565b7f4e487b7100000000000000000000000000000000000000000000000000000000600052601160045260246000fd5b7f4e487b7100000000000000000000000000000000000000000000000000000000600052601260045260246000fd5b7f4e487b7100000000000000000000000000000000000000000000000000000000600052602160045260246000fd5b60038110611311576113106112d1565b5b50565b61131d816111d8565b811461132857600080fd5b50565b611334816111ea565b811461133f57600080fd5b50565b61134b816111f6565b811461135657600080fd5b50565b6002811061136657600080fd5b50565b61137281611233565b811461137d57600080fd5b5056fea2646970667358221220091f9fcbf600e64c81e6a4139de939df7d005c4434f7876a7b4c759fefc0265f64736f6c63430008000033",
  "immutableReferences": {},
  "source": "// SPDX-License-Identifier: unlicensed\r\npragma solidity 0.8.0;\r\n\r\nimport \"@openzeppelin/contracts/token/ERC20/IERC20.sol\";\r\n\r\ncontract DAO {\r\n    enum Side {\r\n        Yes,\r\n        No\r\n    }\r\n    enum Status {\r\n        Undecided,\r\n        Approved,\r\n        Rejected\r\n    }\r\n    struct Proposal {\r\n        address author;\r\n        bytes32 hash;\r\n        uint256 createdAt;\r\n        uint256 votesYes;\r\n        uint256 votesNo;\r\n        Status status;\r\n    }\r\n\r\n    mapping(bytes32 => Proposal) public proposals;\r\n    mapping(address => mapping(bytes32 => bool)) public votes;\r\n    mapping(address => uint256) public shares;\r\n    uint256 public totalShares;\r\n    IERC20 public token;\r\n    //only user with more than 1000 * 10^18(mostly governacne tokens are in decimals) = 1000 GT can create proposal\r\n    uint256 constant CREATE_PROPOSAL_MIN_SHARE = 1000 * 10**18;\r\n    uint256 constant VOTING_PERIOD = 7 days;\r\n\r\n    constructor(address _token) {\r\n        token = IERC20(_token);\r\n    }\r\n\r\n    function deposit(uint256 amount) external {\r\n        shares[msg.sender] += amount;\r\n        totalShares += amount;\r\n        token.transferFrom(msg.sender, address(this), amount);\r\n    }\r\n\r\n    function withdraw(uint256 amount) external {\r\n        require(shares[msg.sender] >= amount, \"not enough shares\");\r\n        shares[msg.sender] -= amount;\r\n        totalShares -= amount;\r\n        token.transfer(msg.sender, amount);\r\n    }\r\n\r\n    function createProposal(bytes32 proposalHash) external {\r\n        require(\r\n            shares[msg.sender] >= CREATE_PROPOSAL_MIN_SHARE,\r\n            \"not enough shares to create proposal\"\r\n        );\r\n        require(\r\n            proposals[proposalHash].hash == bytes32(0),\r\n            \"proposal already exist\"\r\n        );\r\n        proposals[proposalHash] = Proposal(\r\n            msg.sender,\r\n            proposalHash,\r\n            block.timestamp,\r\n            0,\r\n            0,\r\n            Status.Undecided\r\n        );\r\n    }\r\n\r\n    function vote(bytes32 proposalHash, Side side) external {\r\n        Proposal storage proposal = proposals[proposalHash];\r\n        require(votes[msg.sender][proposalHash] == false, \"already voted\");\r\n        require(\r\n            proposals[proposalHash].hash != bytes32(0),\r\n            \"proposal already exist\"\r\n        );\r\n        require(\r\n            block.timestamp <= proposal.createdAt + VOTING_PERIOD,\r\n            \"voting period is over\"\r\n        );\r\n        votes[msg.sender][proposalHash] = true;\r\n        if (side == Side.Yes) {\r\n            proposal.votesYes += shares[msg.sender];\r\n            //in solidity we cannot operate using decimals ; we do 100/50 (0.5*100/100)\r\n            if ((proposal.votesYes * 100) / totalShares > 50) {\r\n                proposal.status = Status.Approved;\r\n            }\r\n        } else {\r\n            proposal.votesNo += shares[msg.sender];\r\n            //in solidity we cannot operate using decimals ; we do 100/50 (0.5*100/100)\r\n            if ((proposal.votesNo * 100) / totalShares > 50) {\r\n                proposal.status = Status.Rejected;\r\n            }\r\n        }\r\n    }\r\n}\r\n",
  "sourcePath": "D:\\Github\\dao\\contracts\\DAO.sol",
  "compiler": {
    "name": "solc",
    "version": "0.8.0+commit.c7dfd78e.Emscripten.clang"
  },
  "schemaVersion": "3.4.3",
  "updatedAt": "2022-01-26T17:41:56.727Z",
  "devdoc": {
    "kind": "dev",
    "methods": {},
    "version": 1
  },
  "userdoc": {
    "kind": "user",
    "methods": {},
    "version": 1
  }
}